{
  "_format": "hh-sol-artifact-1",
  "contractName": "CrowdFunding",
  "sourceName": "contracts/CrowdFunding.sol",
  "abi": [
    {
      "inputs": [
        {
          "internalType": "uint256",
          "name": "",
          "type": "uint256"
        }
      ],
      "name": "campaigns",
      "outputs": [
        {
          "internalType": "string",
          "name": "id",
          "type": "string"
        },
        {
          "internalType": "address",
          "name": "owner",
          "type": "address"
        },
        {
          "internalType": "uint256",
          "name": "target",
          "type": "uint256"
        },
        {
          "internalType": "uint256",
          "name": "deadline",
          "type": "uint256"
        },
        {
          "internalType": "uint256",
          "name": "amountCollected",
          "type": "uint256"
        }
      ],
      "stateMutability": "view",
      "type": "function"
    },
    {
      "inputs": [
        {
          "internalType": "string",
          "name": "_id",
          "type": "string"
        },
        {
          "internalType": "uint256",
          "name": "_target",
          "type": "uint256"
        },
        {
          "internalType": "uint256",
          "name": "_deadline",
          "type": "uint256"
        }
      ],
      "name": "createCampaign",
      "outputs": [
        {
          "internalType": "uint256",
          "name": "",
          "type": "uint256"
        }
      ],
      "stateMutability": "nonpayable",
      "type": "function"
    },
    {
      "inputs": [
        {
          "internalType": "uint256",
          "name": "_id",
          "type": "uint256"
        }
      ],
      "name": "donateToCampaign",
      "outputs": [],
      "stateMutability": "payable",
      "type": "function"
    },
    {
      "inputs": [],
      "name": "getCampaigns",
      "outputs": [
        {
          "components": [
            {
              "internalType": "string",
              "name": "id",
              "type": "string"
            },
            {
              "internalType": "address",
              "name": "owner",
              "type": "address"
            },
            {
              "internalType": "uint256",
              "name": "target",
              "type": "uint256"
            },
            {
              "internalType": "uint256",
              "name": "deadline",
              "type": "uint256"
            },
            {
              "internalType": "uint256",
              "name": "amountCollected",
              "type": "uint256"
            },
            {
              "internalType": "address[]",
              "name": "donators",
              "type": "address[]"
            },
            {
              "internalType": "uint256[]",
              "name": "donations",
              "type": "uint256[]"
            }
          ],
          "internalType": "struct CrowdFunding.Campaign[]",
          "name": "",
          "type": "tuple[]"
        }
      ],
      "stateMutability": "view",
      "type": "function"
    },
    {
      "inputs": [
        {
          "internalType": "uint256",
          "name": "_id",
          "type": "uint256"
        }
      ],
      "name": "getDonators",
      "outputs": [
        {
          "internalType": "address[]",
          "name": "",
          "type": "address[]"
        },
        {
          "internalType": "uint256[]",
          "name": "",
          "type": "uint256[]"
        }
      ],
      "stateMutability": "view",
      "type": "function"
    },
    {
      "inputs": [],
      "name": "numberOfCampaigns",
      "outputs": [
        {
          "internalType": "uint256",
          "name": "",
          "type": "uint256"
        }
      ],
      "stateMutability": "view",
      "type": "function"
    }
  ],
  "bytecode": "0x6080604052600060015534801561001557600080fd5b506115ad806100256000396000f3fe6080604052600436106100555760003560e01c806307ca140d1461005a5780630fa91fa914610085578063141961bc146100c35780633020580b1461010457806342a4fda814610141578063a6b036331461015d575b600080fd5b34801561006657600080fd5b5061006f610188565b60405161007c91906108f3565b60405180910390f35b34801561009157600080fd5b506100ac60048036038101906100a7919061094e565b61018e565b6040516100ba929190610b29565b60405180910390f35b3480156100cf57600080fd5b506100ea60048036038101906100e5919061094e565b61029e565b6040516100fb959493929190610bff565b60405180910390f35b34801561011057600080fd5b5061012b60048036038101906101269190610d8e565b61037c565b60405161013891906108f3565b60405180910390f35b61015b6004803603810190610156919061094e565b61047c565b005b34801561016957600080fd5b506101726105dc565b60405161017f9190611091565b60405180910390f35b60015481565b6060806000808481526020019081526020016000206005016000808581526020019081526020016000206006018180548060200260200160405190810160405280929190818152602001828054801561023c57602002820191906000526020600020905b8160009054906101000a900473ffffffffffffffffffffffffffffffffffffffff1673ffffffffffffffffffffffffffffffffffffffff16815260200190600101908083116101f2575b505050505091508080548060200260200160405190810160405280929190818152602001828054801561028e57602002820191906000526020600020905b81548152602001906001019080831161027a575b5050505050905091509150915091565b60006020528060005260406000206000915090508060000180546102c1906110e2565b80601f01602080910402602001604051908101604052809291908181526020018280546102ed906110e2565b801561033a5780601f1061030f5761010080835404028352916020019161033a565b820191906000526020600020905b81548152906001019060200180831161031d57829003601f168201915b5050505050908060010160009054906101000a900473ffffffffffffffffffffffffffffffffffffffff16908060020154908060030154908060040154905085565b60008060008060015481526020019081526020016000209050428160030154106103db576040517f08c379a00000000000000000000000000000000000000000000000000000000081526004016103d290611185565b60405180910390fd5b848160000190816103ec9190611351565b50338160010160006101000a81548173ffffffffffffffffffffffffffffffffffffffff021916908373ffffffffffffffffffffffffffffffffffffffff160217905550838160020181905550828160030181905550600081600401819055506001600081548092919061045f90611452565b919050555060018054610472919061149a565b9150509392505050565b60003490506000806000848152602001908152602001600020905080600501339080600181540180825580915050600190039060005260206000200160009091909190916101000a81548173ffffffffffffffffffffffffffffffffffffffff021916908373ffffffffffffffffffffffffffffffffffffffff1602179055508060060182908060018154018082558091505060019003906000526020600020016000909190919091505560008160010160009054906101000a900473ffffffffffffffffffffffffffffffffffffffff1673ffffffffffffffffffffffffffffffffffffffff1683604051610571906114ff565b60006040518083038185875af1925050503d80600081146105ae576040519150601f19603f3d011682016040523d82523d6000602084013e6105b3565b606091505b5050905080156105d6578282600401546105cd9190611514565b82600401819055505b50505050565b6060600060015467ffffffffffffffff8111156105fc576105fb610c63565b5b60405190808252806020026020018201604052801561063557816020015b610622610887565b81526020019060019003908161061a5790505b50905060005b60015481101561087f5760008060008381526020019081526020016000209050806040518060e0016040529081600082018054610677906110e2565b80601f01602080910402602001604051908101604052809291908181526020018280546106a3906110e2565b80156106f05780601f106106c5576101008083540402835291602001916106f0565b820191906000526020600020905b8154815290600101906020018083116106d357829003601f168201915b505050505081526020016001820160009054906101000a900473ffffffffffffffffffffffffffffffffffffffff1673ffffffffffffffffffffffffffffffffffffffff1673ffffffffffffffffffffffffffffffffffffffff168152602001600282015481526020016003820154815260200160048201548152602001600582018054806020026020016040519081016040528092919081815260200182805480156107f257602002820191906000526020600020905b8160009054906101000a900473ffffffffffffffffffffffffffffffffffffffff1673ffffffffffffffffffffffffffffffffffffffff16815260200190600101908083116107a8575b505050505081526020016006820180548060200260200160405190810160405280929190818152602001828054801561084a57602002820191906000526020600020905b815481526020019060010190808311610836575b50505050508152505083838151811061086657610865611548565b5b602002602001018190525050808060010191505061063b565b508091505090565b6040518060e0016040528060608152602001600073ffffffffffffffffffffffffffffffffffffffff16815260200160008152602001600081526020016000815260200160608152602001606081525090565b6000819050919050565b6108ed816108da565b82525050565b600060208201905061090860008301846108e4565b92915050565b6000604051905090565b600080fd5b600080fd5b61092b816108da565b811461093657600080fd5b50565b60008135905061094881610922565b92915050565b60006020828403121561096457610963610918565b5b600061097284828501610939565b91505092915050565b600081519050919050565b600082825260208201905092915050565b6000819050602082019050919050565b600073ffffffffffffffffffffffffffffffffffffffff82169050919050565b60006109d2826109a7565b9050919050565b6109e2816109c7565b82525050565b60006109f483836109d9565b60208301905092915050565b6000602082019050919050565b6000610a188261097b565b610a228185610986565b9350610a2d83610997565b8060005b83811015610a5e578151610a4588826109e8565b9750610a5083610a00565b925050600181019050610a31565b5085935050505092915050565b600081519050919050565b600082825260208201905092915050565b6000819050602082019050919050565b610aa0816108da565b82525050565b6000610ab28383610a97565b60208301905092915050565b6000602082019050919050565b6000610ad682610a6b565b610ae08185610a76565b9350610aeb83610a87565b8060005b83811015610b1c578151610b038882610aa6565b9750610b0e83610abe565b925050600181019050610aef565b5085935050505092915050565b60006040820190508181036000830152610b438185610a0d565b90508181036020830152610b578184610acb565b90509392505050565b600081519050919050565b600082825260208201905092915050565b60005b83811015610b9a578082015181840152602081019050610b7f565b60008484015250505050565b6000601f19601f8301169050919050565b6000610bc282610b60565b610bcc8185610b6b565b9350610bdc818560208601610b7c565b610be581610ba6565b840191505092915050565b610bf9816109c7565b82525050565b600060a0820190508181036000830152610c198188610bb7565b9050610c286020830187610bf0565b610c3560408301866108e4565b610c4260608301856108e4565b610c4f60808301846108e4565b9695505050505050565b600080fd5b600080fd5b7f4e487b7100000000000000000000000000000000000000000000000000000000600052604160045260246000fd5b610c9b82610ba6565b810181811067ffffffffffffffff82111715610cba57610cb9610c63565b5b80604052505050565b6000610ccd61090e565b9050610cd98282610c92565b919050565b600067ffffffffffffffff821115610cf957610cf8610c63565b5b610d0282610ba6565b9050602081019050919050565b82818337600083830152505050565b6000610d31610d2c84610cde565b610cc3565b905082815260208101848484011115610d4d57610d4c610c5e565b5b610d58848285610d0f565b509392505050565b600082601f830112610d7557610d74610c59565b5b8135610d85848260208601610d1e565b91505092915050565b600080600060608486031215610da757610da6610918565b5b600084013567ffffffffffffffff811115610dc557610dc461091d565b5b610dd186828701610d60565b9350506020610de286828701610939565b9250506040610df386828701610939565b9150509250925092565b600081519050919050565b600082825260208201905092915050565b6000819050602082019050919050565b600082825260208201905092915050565b6000610e4582610b60565b610e4f8185610e29565b9350610e5f818560208601610b7c565b610e6881610ba6565b840191505092915050565b600082825260208201905092915050565b6000610e8f8261097b565b610e998185610e73565b9350610ea483610997565b8060005b83811015610ed5578151610ebc88826109e8565b9750610ec783610a00565b925050600181019050610ea8565b5085935050505092915050565b600082825260208201905092915050565b6000610efe82610a6b565b610f088185610ee2565b9350610f1383610a87565b8060005b83811015610f44578151610f2b8882610aa6565b9750610f3683610abe565b925050600181019050610f17565b5085935050505092915050565b600060e0830160008301518482036000860152610f6e8282610e3a565b9150506020830151610f8360208601826109d9565b506040830151610f966040860182610a97565b506060830151610fa96060860182610a97565b506080830151610fbc6080860182610a97565b5060a083015184820360a0860152610fd48282610e84565b91505060c083015184820360c0860152610fee8282610ef3565b9150508091505092915050565b60006110078383610f51565b905092915050565b6000602082019050919050565b600061102782610dfd565b6110318185610e08565b93508360208202850161104385610e19565b8060005b8581101561107f57848403895281516110608582610ffb565b945061106b8361100f565b925060208a01995050600181019050611047565b50829750879550505050505092915050565b600060208201905081810360008301526110ab818461101c565b905092915050565b7f4e487b7100000000000000000000000000000000000000000000000000000000600052602260045260246000fd5b600060028204905060018216806110fa57607f821691505b60208210810361110d5761110c6110b3565b5b50919050565b7f54686520646561646c696e652073686f756c642062652061206461746520696e60008201527f20746865206675747572652e0000000000000000000000000000000000000000602082015250565b600061116f602c83610b6b565b915061117a82611113565b604082019050919050565b6000602082019050818103600083015261119e81611162565b9050919050565b60008190508160005260206000209050919050565b60006020601f8301049050919050565b600082821b905092915050565b6000600883026112077fffffffffffffffffffffffffffffffffffffffffffffffffffffffffffffffff826111ca565b61121186836111ca565b95508019841693508086168417925050509392505050565b6000819050919050565b600061124e611249611244846108da565b611229565b6108da565b9050919050565b6000819050919050565b61126883611233565b61127c61127482611255565b8484546111d7565b825550505050565b600090565b611291611284565b61129c81848461125f565b505050565b5b818110156112c0576112b5600082611289565b6001810190506112a2565b5050565b601f821115611305576112d6816111a5565b6112df846111ba565b810160208510156112ee578190505b6113026112fa856111ba565b8301826112a1565b50505b505050565b600082821c905092915050565b60006113286000198460080261130a565b1980831691505092915050565b60006113418383611317565b9150826002028217905092915050565b61135a82610b60565b67ffffffffffffffff81111561137357611372610c63565b5b61137d82546110e2565b6113888282856112c4565b600060209050601f8311600181146113bb57600084156113a9578287015190505b6113b38582611335565b86555061141b565b601f1984166113c9866111a5565b60005b828110156113f1578489015182556001820191506020850194506020810190506113cc565b8683101561140e578489015161140a601f891682611317565b8355505b6001600288020188555050505b505050505050565b7f4e487b7100000000000000000000000000000000000000000000000000000000600052601160045260246000fd5b600061145d826108da565b91507fffffffffffffffffffffffffffffffffffffffffffffffffffffffffffffffff820361148f5761148e611423565b5b600182019050919050565b60006114a5826108da565b91506114b0836108da565b92508282039050818111156114c8576114c7611423565b5b92915050565b600081905092915050565b50565b60006114e96000836114ce565b91506114f4826114d9565b600082019050919050565b600061150a826114dc565b9150819050919050565b600061151f826108da565b915061152a836108da565b925082820190508082111561154257611541611423565b5b92915050565b7f4e487b7100000000000000000000000000000000000000000000000000000000600052603260045260246000fdfea264697066735822122014821adb51cb4d0f91663aa074f7e319337853b2b25e4251ed32bbe24168278c64736f6c63430008180033",
  "linkReferences": {},
  "deployedLinkReferences": {}
}